:1006E4002A00554E4C4F434B4544005354494C4CFF
:1006F400204F50454E004C4F434B45440043453139
:1007040030332E4E32332E4D54434C004449474926
:1007140054414C204C4F434B00454E5445522050BD
:10072400415353434F4445003100320033003400F9
:100734003500360037003800390030004C4153543E
:100744002050415353434F44450041434345535381
:10075400204752414E54454400414343455353209E
:1007640044454E494544004C4F434B45522044496F
:100774005341424C4544004E455720504153535732
:100784004F52440057524F4E472050415353574FF6
:1007940052440043414E275420424C414E4B005397
:0C07A40055434345535346554C4C5900F7
:1009A0000A14303030300000000000000A1E000041
:1009B00000000000000000000A0800000000000025
:0809C00000000000021200001B
:0609F000C2817FD07E07EA
:1009F600E4FDFCC3ED9FEC9E5015E4FBFA0BBB0037
:0F0A0600010AEB64704A70F50DBD00010C80E42D
:010A150022BE
:1009C9007D007B00781E7C007A00790812069C7FE6
:0109D900011C
:1009DA008FA0C2B0C2B1D2B27F017E001209F6C2A4
:0609EA00B27F050209F6D0
:100A36008FA0D2B0C2B1D2B27F017E001209F6C237
:060A4600B27F050209F673
:06096F007BFF7A07791DF1
:060975008B2C8A2D892E57
:10097B00E4F52FF530AB2CAA2DA92E853082852FCF
:10098B0083120408FF600D120A360530E53070E55E
:04099B00052F80E1C3
:01099F002235
:100936008F358D368B378A388939EF3395E04F708E
:1009460008E536540F44808013AF35EF3395E0FE4B
:10095600EF64014E700AE536540F44C0FF1209DAFF
:09096600AB37AA38A93902097562
:100A16007F147E001209F67F381209DA7F0C12095C
:100A2600DA7F061209DA7F011209DA7F800209DA13
:100A4C007FF47E011209F67F101209DA7BFF7A0619
:050A5C0079E4020975B8
:050A6D00D2B3C2B42267
:050A7200C2B3D2B42262
:070A61007F187E011209F667
:050A6800C2B3C2B4227C
:1008EB00C3E5139403E512648094805008C2827FA1
:1008FB00F47E018030C3E5139405E5126480948087
:10090B005008C2827F107E27801BC3E5139405E538
:10091B0012648094804008C2827F207E4E8006C283
:0B092B00827F907E011209F6D282222A
:100894007F011209DA7BFF7A0679E6120975120ADA
:1008A4006D120A617F887E131209F630B51D7F012F
:1008B4001209DA7BFF7A0679EF12097530B50C7FDD
:1008C400907E011209F61208EB80F1120A72120AE4
:1008D400617F011209DA7BFF7A0679FA120975122F
:0708E40009F27F010209DAAD
:10000300E4F528F529F52A752B01120A167BFF7AE8
:100013000779011209757FC01209DA7BFF7A077924
:10002300101209757FE87E031209F67F011209DABF
:1000330012096F7FC01209DAD293D292D291D29071
:10004300C2902094217BFF7A07792C120975120A3A
:100053004C752FFF75300775312C7B007A00791EA4
:1000630012083C3094FDD293D292D291D290C29096
:100073002095217BFF7A07792E120975120A4C7598
:100083002FFF75300775312E7B007A00791E120819
:100093003C3095FDD293D292D291D290C2902096C9
:1000A300217BFF7A077930120975120A4C752FFFED
:1000B3007530077531307B007A00791E12083C30A9
:1000C30096FDD293D292D291D290C2912094217B69
:1000D300FF7A077932120975120A4C752FFF7530B2
:1000E300077531327B007A00791E12083C3094FD8B
:1000F300D293D292D291D290C2912095217BFF7A52
:10010300077934120975120A4C752FFF753007757C
:1001130031347B007A00791E12083C3095FDD2936E
:10012300D292D291D290C2912096217BFF7A077905
:1001330036120975120A4C752FFF75300775313663
:100143007B007A00791E12083C3096FDD293D2923E
:10015300D291D290C2922094217BFF7A07793812F0
:100163000975120A4C752FFF7530077531387B00FE
:100173007A00791E12083C3094FDD293D292D29128
:10018300D290C2922095217BFF7A07793A120975A2
:10019300120A4C752FFF75300775313A7B007A00D0
:1001A300791E12083C3095FDD293D292D291D2900F
:1001B300C2922096217BFF7A07793C120975120AB5
:1001C3004C752FFF75300775313C7B007A00791E23
:1001D30012083C3096FDD293D292D291D290C29320
:1001E3002095217BFF7A07793E120975120A4C7517
:1001F3002FFF75300775313E7B007A00791E120898
:100203003C3095FD20971A7528007529011209C9FC
:100213007BFF7A0779401209757FC01209DA30979C
:10022300FDD293D292D291D290C293209615E4F547
:1002330028F529FDFB1209CD12096F7FC01209DAD7
:100243003096FDD293D292D291D290C2933094033E
:1002530002003BE529452860030202E478147C0090
:10026300FDFB7A00791E1205B3EF3395E04F702042
:10027300F512F513781E7C00FDFB1209D17BFF7A82
:1002830007794E120975C280120894D280020400C5
:1002930078147C007D007B007A00791E1205B3EF91
:1002A3003395E04F7003020400C3E5139405E51290
:1002B300648094805028781E7C007D007B007A0047
:1002C300790812069C0513E513700205127F0112CB
:1002D30009DA7BFF7A07795D12097502035E02036F
:1002E3006BE52964014528600302038278147C00CE
:1002F300FDFB7A00791E1205B3EF3395E04F701CB6
:10030300F528752902781E7C00FDFB1209D17BFFBD
:100313007A07797B1209757FC00203FD78147C008C
:100323007D007B007A00791E1205B3EF3395E04F11
:100333007003020400C3E5139405E51264809480FE
:1003430050260513E513700205121209C97BFF7AC3
:10035300077988120975E4F528F5291208EB1209C3
:10036300F0D2817F010203FD1209C97BFF7A07796D
:100373006B1209751208EBC281758702020400E54E
:1003830029640245287076781E7C00FDFB7A00798B
:10039300081205B3EF3395E04F7020781E7C00FD03
:1003A300FB1209D17BFF7A077997120975E4F528C7
:1003B300F5291209F0D2817F01803F781E7C007DF0
:1003C300007B007A0079081205B3EF3395E04F60A4
:1003D3002C78147C007D007B007A00791E12069C29
:1003E3001209C97BFF7A0779A3120975E4F528F589
:1003F30029C2801209F2D2807F011209DA309403F4
:0504030002003B80F83F
:030000000207B044
:0C07B000787FE4F6D8FD7581390207F768
:10040800BB010CE58229F582E5833AF583E02250A9
:1004180006E92582F8E622BBFE06E92582F8E222F3
:0D042800E58229F582E5833AF583E493220D
:10083C008B2C8A2D892E8B328A338934AB2C052E46
:10084C00E52EAA2D7002052D14F91206B970ED745F
:10085C00FF252EF52E74FF352DF52DAB2F0531E52B
:10086C0031AA307002053014F91206B9FFAB2C0511
:10087C002EE52EAA2D7002052D14F9EF1206D2705A
:08088C00DAAB32AA33A93422D1
:10043500E3F5F009E208B5F06D606B80F3E3F5F0E4
:1004450009E608B5F060605E80F387F009E608B557
:10045500F054605280F487F009E208B5F048604630
:1004650080F488828C8387F009E0A3B5F038603684
:1004750080F488828C8387F009E493A3B5F0276024
:100485002580F388828C83E3F5F009E0A3B5F016A7
:10049500601480F388828C83E3F5F009E493A3B5B7
:1004A500F004600280F2020560808580E7808E801E
:1004B500D2803C8015806C807E809B80B5808B804F
:1004C500A1804F8070803A02056C89828A83ECFA9C
:1004D500E493F5F0A3C8C582C8CCC583CCE493A347
:1004E500C8C582C8CCC583CCB5F070606E80E18983
:1004F500828A83E493F5F0A3E208B5F05E605C8040
:10050500F289828A83E0F5F0A3E608B5F04D604BE9
:1005150080F389828A83E0F5F0A3E208B5F03C60B8
:100525003A80F389828A83E493F5F0A3E608B5F06F
:100535002A602880F2805389828A83ECFAE493F555
:10054500F0A3C8C582C8CCC583CCE0A3C8C582C802
:10055500CCC583CCB5F004600280E27FFFB5F00224
:100565000F2240027F012289828A83ECFAE0F5F0AE
:10057500A3C8C582C8CCC583CCE0A3C8C582C8CCF6
:10058500C583CCB5F0D560D380E389828A83ECFA44
:10059500E0F5F0A3C8C582C8CCC583CCE493A3C855
:1005A500C582C8CCC583CCB5F0B160AF80E288F018
:1005B500ED2402B4040050A3F582EB2402B4040038
:0B05C500509923234582239004AE735D
:1005D000E709F60870FA8046E709F20870FA803EEB
:1005E00088828C83E709F0A370FA807EE309F6081D
:1005F00070FA8076E309F20870FA806E88828C8344
:10060000E309F0A370FA806289828A83E0A3F60886
:1006100070FA805689828A83E0A3F20870FA804AD1
:1006200080D280FA80C680D4806580F280318010CC
:1006300080A680EA809A80A880DA80E280CA803131
:1006400089828A83ECFAE493A3C8C582C8CCC583A7
:10065000CCF0A3C8C582C8CCC583CC70E9800D8915
:10066000828A83E493A3F60870F9ECFAA9F0EDFB13
:100670002289828A83ECFAE0A3C8C582C8CCC583EC
:10068000CCF0A3C8C582C8CCC583CC70EA80DD8914
:10069000828A83E493A3F20870F980CE88F0ED2477
:1006A00002B4040050C4F582EB2402B4040050BA32
:0906B000232345822390062073E8
:1007BC00020003E493A3F8E493A34003F68001F250
:1007CC0008DFF48029E493A3F85407240CC8C3333E
:1007DC00C4540F4420C8834004F456800146F6DF0D
:1007EC00E4800B01020408102040809009A0E47EF4
:1007FC00019360BCA3FF543F30E509541FFEE49302
:10080C00A360010ECF54C025E060A840B8E493A3C8
:10081C00FAE493A3F8E493A3C8C582C8CAC583CAF3
:10082C00F0A3C8C582C8CAC583CADFE9DEE780BEAB
:0109C800002E
:1006B900BB010689828A83E0225002E722BBFE023F
:0906C900E32289828A83E4932272
:1006D200BB010689828A83F0225002F722BBFE0107
:0206E200F32201
:00000001FF
